{
  "_format": "hh-sol-artifact-1",
  "contractName": "RewardVault",
  "sourceName": "contracts/RewardVault.sol",
  "abi": [
    {
      "inputs": [],
      "stateMutability": "nonpayable",
      "type": "constructor"
    },
    {
      "inputs": [
        {
          "internalType": "address",
          "name": "owner",
          "type": "address"
        }
      ],
      "name": "OwnableInvalidOwner",
      "type": "error"
    },
    {
      "inputs": [
        {
          "internalType": "address",
          "name": "account",
          "type": "address"
        }
      ],
      "name": "OwnableUnauthorizedAccount",
      "type": "error"
    },
    {
      "inputs": [],
      "name": "ReentrancyGuardReentrantCall",
      "type": "error"
    },
    {
      "anonymous": false,
      "inputs": [
        {
          "indexed": true,
          "internalType": "address",
          "name": "learner",
          "type": "address"
        },
        {
          "indexed": false,
          "internalType": "uint256",
          "name": "xp",
          "type": "uint256"
        },
        {
          "indexed": false,
          "internalType": "uint256",
          "name": "reward",
          "type": "uint256"
        }
      ],
      "name": "LessonSubmitted",
      "type": "event"
    },
    {
      "anonymous": false,
      "inputs": [
        {
          "indexed": true,
          "internalType": "address",
          "name": "learner",
          "type": "address"
        },
        {
          "indexed": false,
          "internalType": "uint256",
          "name": "reward",
          "type": "uint256"
        }
      ],
      "name": "ModuleSubmitted",
      "type": "event"
    },
    {
      "anonymous": false,
      "inputs": [
        {
          "indexed": true,
          "internalType": "address",
          "name": "previousOwner",
          "type": "address"
        },
        {
          "indexed": true,
          "internalType": "address",
          "name": "newOwner",
          "type": "address"
        }
      ],
      "name": "OwnershipTransferred",
      "type": "event"
    },
    {
      "anonymous": false,
      "inputs": [
        {
          "indexed": true,
          "internalType": "address",
          "name": "learner",
          "type": "address"
        },
        {
          "indexed": false,
          "internalType": "uint256",
          "name": "amount",
          "type": "uint256"
        }
      ],
      "name": "RewardClaimed",
      "type": "event"
    },
    {
      "anonymous": false,
      "inputs": [
        {
          "indexed": true,
          "internalType": "address",
          "name": "sender",
          "type": "address"
        },
        {
          "indexed": false,
          "internalType": "uint256",
          "name": "amount",
          "type": "uint256"
        }
      ],
      "name": "VaultFunded",
      "type": "event"
    },
    {
      "inputs": [
        {
          "internalType": "uint256",
          "name": "amount",
          "type": "uint256"
        }
      ],
      "name": "claim",
      "outputs": [],
      "stateMutability": "nonpayable",
      "type": "function"
    },
    {
      "inputs": [],
      "name": "claimAll",
      "outputs": [],
      "stateMutability": "nonpayable",
      "type": "function"
    },
    {
      "inputs": [
        {
          "internalType": "address",
          "name": "",
          "type": "address"
        }
      ],
      "name": "learners",
      "outputs": [
        {
          "internalType": "uint128",
          "name": "xp",
          "type": "uint128"
        },
        {
          "internalType": "uint128",
          "name": "claimable",
          "type": "uint128"
        }
      ],
      "stateMutability": "view",
      "type": "function"
    },
    {
      "inputs": [],
      "name": "owner",
      "outputs": [
        {
          "internalType": "address",
          "name": "",
          "type": "address"
        }
      ],
      "stateMutability": "view",
      "type": "function"
    },
    {
      "inputs": [
        {
          "internalType": "bytes32",
          "name": "",
          "type": "bytes32"
        }
      ],
      "name": "processedProofs",
      "outputs": [
        {
          "internalType": "bool",
          "name": "",
          "type": "bool"
        }
      ],
      "stateMutability": "view",
      "type": "function"
    },
    {
      "inputs": [],
      "name": "renounceOwnership",
      "outputs": [],
      "stateMutability": "nonpayable",
      "type": "function"
    },
    {
      "inputs": [
        {
          "internalType": "uint256",
          "name": "xpGained",
          "type": "uint256"
        },
        {
          "internalType": "bytes32",
          "name": "proofId",
          "type": "bytes32"
        }
      ],
      "name": "submitLesson",
      "outputs": [],
      "stateMutability": "nonpayable",
      "type": "function"
    },
    {
      "inputs": [
        {
          "internalType": "bytes32",
          "name": "proofId",
          "type": "bytes32"
        }
      ],
      "name": "submitModule",
      "outputs": [],
      "stateMutability": "nonpayable",
      "type": "function"
    },
    {
      "inputs": [
        {
          "internalType": "address",
          "name": "newOwner",
          "type": "address"
        }
      ],
      "name": "transferOwnership",
      "outputs": [],
      "stateMutability": "nonpayable",
      "type": "function"
    },
    {
      "stateMutability": "payable",
      "type": "receive"
    }
  ],
  "bytecode": "0x60806040523480156200001157600080fd5b5033600073ffffffffffffffffffffffffffffffffffffffff168173ffffffffffffffffffffffffffffffffffffffff1603620000885760006040517f1e4fbdf70000000000000000000000000000000000000000000000000000000081526004016200007f9190620001b0565b60405180910390fd5b6200009981620000a760201b60201c565b5060018081905550620001cd565b60008060009054906101000a900473ffffffffffffffffffffffffffffffffffffffff169050816000806101000a81548173ffffffffffffffffffffffffffffffffffffffff021916908373ffffffffffffffffffffffffffffffffffffffff1602179055508173ffffffffffffffffffffffffffffffffffffffff168173ffffffffffffffffffffffffffffffffffffffff167f8be0079c531659141344cd1fd0a4f28419497f9722a3daafe3b4186f6b6457e060405160405180910390a35050565b600073ffffffffffffffffffffffffffffffffffffffff82169050919050565b600062000198826200016b565b9050919050565b620001aa816200018b565b82525050565b6000602082019050620001c760008301846200019f565b92915050565b61137680620001dd6000396000f3fe60806040526004361061008a5760003560e01c80638da5cb5b116100595780638da5cb5b1461019f578063d1058e59146101ca578063d997938e146101e1578063e43d888b1461020a578063f2fde38b14610233576100df565b8063379607f5146100e4578063715018a61461010d578063839139c61461012457806384f4e07714610161576100df565b366100df573373ffffffffffffffffffffffffffffffffffffffff167fba24bd9b798cca64d1031eda1ced9398802343e44e07779bb510d7a21ddddef1346040516100d59190610d5c565b60405180910390a2005b600080fd5b3480156100f057600080fd5b5061010b60048036038101906101069190610da8565b61025c565b005b34801561011957600080fd5b50610122610488565b005b34801561013057600080fd5b5061014b60048036038101906101469190610e0b565b61049c565b6040516101589190610e53565b60405180910390f35b34801561016d57600080fd5b5061018860048036038101906101839190610ecc565b6104bc565b604051610196929190610f24565b60405180910390f35b3480156101ab57600080fd5b506101b4610518565b6040516101c19190610f5c565b60405180910390f35b3480156101d657600080fd5b506101df610541565b005b3480156101ed57600080fd5b5061020860048036038101906102039190610f77565b610749565b005b34801561021657600080fd5b50610231600480360381019061022c9190610e0b565b610984565b005b34801561023f57600080fd5b5061025a60048036038101906102559190610ecc565b610b1b565b005b610264610ba1565b6000600260003373ffffffffffffffffffffffffffffffffffffffff1673ffffffffffffffffffffffffffffffffffffffff1681526020019081526020016000209050818160000160109054906101000a90046fffffffffffffffffffffffffffffffff166fffffffffffffffffffffffffffffffff16101561031c576040517f08c379a000000000000000000000000000000000000000000000000000000000815260040161031390611014565b60405180910390fd5b818160000160108282829054906101000a90046fffffffffffffffffffffffffffffffff1661034b9190611063565b92506101000a8154816fffffffffffffffffffffffffffffffff02191690836fffffffffffffffffffffffffffffffff16021790555060003373ffffffffffffffffffffffffffffffffffffffff16836040516103a7906110d8565b60006040518083038185875af1925050503d80600081146103e4576040519150601f19603f3d011682016040523d82523d6000602084013e6103e9565b606091505b505090508061042d576040517f08c379a000000000000000000000000000000000000000000000000000000000815260040161042490611139565b60405180910390fd5b3373ffffffffffffffffffffffffffffffffffffffff167f106f923f993c2149d49b4255ff723acafa1f2d94393f561d3eda32ae348f7241846040516104739190610d5c565b60405180910390a25050610485610be7565b50565b610490610bf0565b61049a6000610c77565b565b60036020528060005260406000206000915054906101000a900460ff1681565b60026020528060005260406000206000915090508060000160009054906101000a90046fffffffffffffffffffffffffffffffff16908060000160109054906101000a90046fffffffffffffffffffffffffffffffff16905082565b60008060009054906101000a900473ffffffffffffffffffffffffffffffffffffffff16905090565b610549610ba1565b6000600260003373ffffffffffffffffffffffffffffffffffffffff1673ffffffffffffffffffffffffffffffffffffffff168152602001908152602001600020905060008160000160109054906101000a90046fffffffffffffffffffffffffffffffff166fffffffffffffffffffffffffffffffff16905060008111610606576040517f08c379a00000000000000000000000000000000000000000000000000000000081526004016105fd906111a5565b60405180910390fd5b60008260000160106101000a8154816fffffffffffffffffffffffffffffffff02191690836fffffffffffffffffffffffffffffffff16021790555060003373ffffffffffffffffffffffffffffffffffffffff1682604051610668906110d8565b60006040518083038185875af1925050503d80600081146106a5576040519150601f19603f3d011682016040523d82523d6000602084013e6106aa565b606091505b50509050806106ee576040517f08c379a00000000000000000000000000000000000000000000000000000000081526004016106e590611139565b60405180910390fd5b3373ffffffffffffffffffffffffffffffffffffffff167f106f923f993c2149d49b4255ff723acafa1f2d94393f561d3eda32ae348f7241836040516107349190610d5c565b60405180910390a2505050610747610be7565b565b6003600082815260200190815260200160002060009054906101000a900460ff16156107aa576040517f08c379a00000000000000000000000000000000000000000000000000000000081526004016107a190611211565b60405180910390fd5b60016003600083815260200190815260200160002060006101000a81548160ff021916908315150217905550600060648310156107f957662386f26fc10000836107f49190611231565b610803565b670de0b6b3a76400005b9050670de0b6b3a764000081111561082157670de0b6b3a764000090505b6000600260003373ffffffffffffffffffffffffffffffffffffffff1673ffffffffffffffffffffffffffffffffffffffff1681526020019081526020016000209050838160000160008282829054906101000a90046fffffffffffffffffffffffffffffffff166108939190611273565b92506101000a8154816fffffffffffffffffffffffffffffffff02191690836fffffffffffffffffffffffffffffffff160217905550818160000160108282829054906101000a90046fffffffffffffffffffffffffffffffff166108f89190611273565b92506101000a8154816fffffffffffffffffffffffffffffffff02191690836fffffffffffffffffffffffffffffffff1602179055503373ffffffffffffffffffffffffffffffffffffffff167f39fff4534aacb66404f24f8acbae6cc782071fa1ad8d6c065b860bad441550f385846040516109769291906112b7565b60405180910390a250505050565b6003600082815260200190815260200160002060009054906101000a900460ff16156109e5576040517f08c379a00000000000000000000000000000000000000000000000000000000081526004016109dc90611211565b60405180910390fd5b60016003600083815260200190815260200160002060006101000a81548160ff0219169083151502179055506000600260003373ffffffffffffffffffffffffffffffffffffffff1673ffffffffffffffffffffffffffffffffffffffff1681526020019081526020016000209050678ac7230489e800008160000160108282829054906101000a90046fffffffffffffffffffffffffffffffff16610a8b9190611273565b92506101000a8154816fffffffffffffffffffffffffffffffff02191690836fffffffffffffffffffffffffffffffff1602179055503373ffffffffffffffffffffffffffffffffffffffff167f353c7628c85790f560896ca6f84c6de55699e3b2e20b8ef490a3ce4daf051b93678ac7230489e80000604051610b0f9190611325565b60405180910390a25050565b610b23610bf0565b600073ffffffffffffffffffffffffffffffffffffffff168173ffffffffffffffffffffffffffffffffffffffff1603610b955760006040517f1e4fbdf7000000000000000000000000000000000000000000000000000000008152600401610b8c9190610f5c565b60405180910390fd5b610b9e81610c77565b50565b600260015403610bdd576040517f3ee5aeb500000000000000000000000000000000000000000000000000000000815260040160405180910390fd5b6002600181905550565b60018081905550565b610bf8610d3b565b73ffffffffffffffffffffffffffffffffffffffff16610c16610518565b73ffffffffffffffffffffffffffffffffffffffff1614610c7557610c39610d3b565b6040517f118cdaa7000000000000000000000000000000000000000000000000000000008152600401610c6c9190610f5c565b60405180910390fd5b565b60008060009054906101000a900473ffffffffffffffffffffffffffffffffffffffff169050816000806101000a81548173ffffffffffffffffffffffffffffffffffffffff021916908373ffffffffffffffffffffffffffffffffffffffff1602179055508173ffffffffffffffffffffffffffffffffffffffff168173ffffffffffffffffffffffffffffffffffffffff167f8be0079c531659141344cd1fd0a4f28419497f9722a3daafe3b4186f6b6457e060405160405180910390a35050565b600033905090565b6000819050919050565b610d5681610d43565b82525050565b6000602082019050610d716000830184610d4d565b92915050565b600080fd5b610d8581610d43565b8114610d9057600080fd5b50565b600081359050610da281610d7c565b92915050565b600060208284031215610dbe57610dbd610d77565b5b6000610dcc84828501610d93565b91505092915050565b6000819050919050565b610de881610dd5565b8114610df357600080fd5b50565b600081359050610e0581610ddf565b92915050565b600060208284031215610e2157610e20610d77565b5b6000610e2f84828501610df6565b91505092915050565b60008115159050919050565b610e4d81610e38565b82525050565b6000602082019050610e686000830184610e44565b92915050565b600073ffffffffffffffffffffffffffffffffffffffff82169050919050565b6000610e9982610e6e565b9050919050565b610ea981610e8e565b8114610eb457600080fd5b50565b600081359050610ec681610ea0565b92915050565b600060208284031215610ee257610ee1610d77565b5b6000610ef084828501610eb7565b91505092915050565b60006fffffffffffffffffffffffffffffffff82169050919050565b610f1e81610ef9565b82525050565b6000604082019050610f396000830185610f15565b610f466020830184610f15565b9392505050565b610f5681610e8e565b82525050565b6000602082019050610f716000830184610f4d565b92915050565b60008060408385031215610f8e57610f8d610d77565b5b6000610f9c85828601610d93565b9250506020610fad85828601610df6565b9150509250929050565b600082825260208201905092915050565b7f696e73756666696369656e742062616c616e6365000000000000000000000000600082015250565b6000610ffe601483610fb7565b915061100982610fc8565b602082019050919050565b6000602082019050818103600083015261102d81610ff1565b9050919050565b7f4e487b7100000000000000000000000000000000000000000000000000000000600052601160045260246000fd5b600061106e82610ef9565b915061107983610ef9565b925082820390506fffffffffffffffffffffffffffffffff8111156110a1576110a0611034565b5b92915050565b600081905092915050565b50565b60006110c26000836110a7565b91506110cd826110b2565b600082019050919050565b60006110e3826110b5565b9150819050919050565b7f7472616e73666572206661696c65640000000000000000000000000000000000600082015250565b6000611123600f83610fb7565b915061112e826110ed565b602082019050919050565b6000602082019050818103600083015261115281611116565b9050919050565b7f6e6f7468696e6720746f20636c61696d00000000000000000000000000000000600082015250565b600061118f601083610fb7565b915061119a82611159565b602082019050919050565b600060208201905081810360008301526111be81611182565b9050919050565b7f70726f6f66207573656400000000000000000000000000000000000000000000600082015250565b60006111fb600a83610fb7565b9150611206826111c5565b602082019050919050565b6000602082019050818103600083015261122a816111ee565b9050919050565b600061123c82610d43565b915061124783610d43565b925082820261125581610d43565b9150828204841483151761126c5761126b611034565b5b5092915050565b600061127e82610ef9565b915061128983610ef9565b925082820190506fffffffffffffffffffffffffffffffff8111156112b1576112b0611034565b5b92915050565b60006040820190506112cc6000830185610d4d565b6112d96020830184610d4d565b9392505050565b6000819050919050565b6000819050919050565b600061130f61130a611305846112e0565b6112ea565b610d43565b9050919050565b61131f816112f4565b82525050565b600060208201905061133a6000830184611316565b9291505056fea2646970667358221220280032c486c6fe9b854252beb5115fad8af2da54c0466f562b88220384ee0e8f64736f6c63430008180033",
  "linkReferences": {},
  "deployedLinkReferences": {}
}